:040000003AEF00F0E3
:100008004882FACF06F0FBCF07F0F2AC0EEF00F013
:1000180010EF00F034EF00F09DAC15EF00F017EF93
:1000280000F022EF00F09EAC1CEF00F01EEF00F095
:1000380022EF00F039EC04F034EF00F09DA027EF38
:1000480000F029EF00F034EF00F09EA02EEF00F052
:1000580030EF00F034EF00F003EC04F034EF00F080
:1000680007C0FBFF06C0FAFF48921100ABEF04F08F
:100078001D50800B2A6E1D501D24316E1CAE47EF9B
:1000880000F049EF00F04AEF00F031803150D8B469
:1000980050EF00F052EF00F067EF00F03128D8A4DD
:1000A80058EF00F05AEF00F062EF00F0000E1A6E01
:1000B800000E1B6E000E1C6E000E1D6E1C8E000EB8
:1000C8001D6E6FEF00F0000E1A6E000E1B6E000E14
:1000D8001C6E000E1D6E2150800B2A1A21502124FF
:1000E800326E20AE7AEF00F07CEF00F07DEF00F08A
:1000F80032803250D8B483EF00F085EF00F09AEFE9
:1001080000F03228D8A48BEF00F08DEF00F095EFC7
:1001180000F0000E1E6E000E1F6E000E206E000E08
:10012800216E208E000E216EA2EF00F0000E1E6ED2
:10013800000E1F6E000E206E000E216E1E501F1046
:1001480020102110D8A4ABEF00F0ADEF00F0C5EF00
:1001580000F0000E1A6E000E1B6E000E1C6E000ED4
:100168001D6E800E1C127F0E1D122A501D121AC001
:100178001AF01BC01BF01CC01CF01DC01DF008EFBE
:1001880002F03150D8A4CBEF00F0CDEF00F0D7EF5C
:1001980000F0000E1A6E000E1B6E000E1C6E000E94
:1001A8001D6E08EF02F0325031C022F0236A225E41
:1001B800000E235A7F0E22242B6E000E23202C6E55
:1001C8001AC026F01BC027F01CC028F01DC029F05B
:1001D800000E1A6E000E1B6E000E1C6E000E1D6EB9
:1001E800000E2D6E000E2E6E000E2F6E000E306E5D
:1001F800000E326E38EF01F03250D8B406EF01F03D
:1002080008EF01F01FEF01F0D89026362736283680
:100218002936D8901A361B361C361D3630AE17EFE5
:1002280001F019EF01F01AEF01F01A80D8902D367D
:100238002E362F3630361E50265C1F502758205039
:10024800285821502958D8A02CEF01F02EEF01F0A2
:1002580037EF01F0308C1E50265E1F50275A205071
:10026800285A2150295A322A190E32643EEF01F0D9
:1002780040EF01F000EF01F0265027102810291058
:10028800D8B449EF01F04BEF01F063EF01F02D8096
:1002980063EF01F0D8901A361B361C361D3630AE87
:1002A80058EF01F05AEF01F05BEF01F01A80D89097
:1002B8002D362E362F3630362B06D8A02C061CAEFF
:1002C80068EF01F06AEF01F04EEF01F0000E326EB8
:1002D80030AE71EF01F073EF01F097EF01F0FF0E10
:1002E8002D14226EFF0E2E14236EFF0E2F14246E73
:1002F8007F0E3014256E2250231024102510D8B4F8
:1003080088EF01F08AEF01F08EEF01F0010E326EF6
:1003180097EF01F01AA093EF01F095EF01F097EF36
:1003280001F08AEF01F03250D8B49DEF01F09FEF51
:1003380001F0C3EF01F0010E1A26000E1B221C2249
:100348001D221DA0AAEF01F0ACEF01F0C3EF01F0F0
:100358001AC022F01BC023F01CC024F01DC025F0D9
:100368002534253224322332223222C01AF023C007
:100378001BF024C01CF025C01DF02B4A2C2A2CBED3
:10038800CEEF01F02C5008E12B28D8A0CEEF01F0D9
:10039800D0EF01F0DBEF01F0000E2C6E2B68000EA1
:1003A8001A6E000E1B6E000E1C6E000E1D6E2CBE0B
:1003B800E8EF01F02C5006E12B04D8B0E6EF01F08D
:1003C800E8EF01F0F6EF01F0000E2C6E000E2B6E38
:1003D800000E1A6E000E1B6E000E1C6E000E1D6EB7
:1003E800000E2A6E2BC031F031A0FDEF01F0FFEFB7
:1003F80001F002EF02F01C8E03EF02F01C9ED89071
:1004080031301D6EB9EF00F01200146E1450D8B4DC
:1004180010EF02F012EF02F034EF02F00FBE19EF06
:1004280002F017EF02F034EF02F00CC010F00DC02C
:1004380011F00EC012F00FC013F0101E111E121E84
:10044800131E102A000E11221222132210C016F0B9
:1004580011C017F012C018F013C019F03CEF02F0E9
:100468000CC016F00DC017F00EC018F00FC019F030
:100478000C500D100E100F10D8A445EF02F047EFE6
:1004880002F051EF02F0000E0C6E000E0D6E000E21
:100498000E6E000E0F6EE2EF02F0960E156E5BEF19
:1004A80002F0152AD8901932183217321632000E77
:1004B8001614106E000E1714116E000E1814126E1A
:1004C800FE0E1914136E1050111012101310D8A428
:1004D80070EF02F072EF02F055EF02F080EF02F0D9
:1004E800152A010E1626000E172218221922D89056
:1004F8001932183217321632000E1614106E000E0A
:100508001714116E000E1814126EFF0E1914136EC4
:100518001050111012101310D8A495EF02F097EF95
:1005280002F074EF02F09FEF02F01506D89016362D
:1005380017361836193618BEA4EF02F0A6EF02F0E7
:10054800AEEF02F0020E1560ACEF02F0AEEF02F073
:1005580099EF02F015B0B3EF02F0B5EF02F0B6EF85
:1005680002F0189ED890153215C010F0116A126A60
:10057800136A10C013F0126A116A106A105016122A
:100588001150171212501812135019121450D8B4CF
:10059800D0EF02F0D2EF02F0DAEF02F00FBED9EF9F
:1005A80002F0D7EF02F0DAEF02F0198E16C00CF065
:1005B80017C00DF018C00EF019C00FF01200353436
:1005C80036343C6E3C50D8A4ECEF02F0EEEF02F06B
:1005D800F8EF02F0000E336E000E346E000E356E2A
:1005E800000E366E65EF03F033C037F034C038F0D4
:1005F80035C039F036C03AF0200E08EF03F0D89035
:100608003A32393238323732E82E03EF03F03750B6
:100618003B6E358EFF0E3316FF0E3416FF0E351661
:10062800000E3616960E3C5E3CBE1FEF03F01DEF23
:1006380003F035EF03F03C50800A970FD8B027EF4E
:1006480003F029EF03F02BEF03F0EEEF02F0D89060
:1006580036323532343233323C3E2BEF03F04DEF35
:1006680003F01F0E3C643BEF03F03DEF03F045EF52
:1006780003F0EEEF02F0D89033363436353636369E
:100688003C063C50D8A44BEF03F04DEF03F03FEF8E
:1006980003F03B50D8B453EF03F055EF03F05DEF90
:1006A80003F0361E351E341E336C000E34223522FC
:1006B800362233C033F034C034F035C035F036C09C
:1006C80036F0120096EC04F078EC04F0B20E086EE6
:1006D800070E096EBAEC04F0F28EF28C8C988C8AB4
:1006E800050E456E030E3E6E080E3D6E770EE82E23
:1006F800FED73D2EFCD73E2EFAD700F04568290ECE
:100708003E6E960E3D6E7F0EE82EFED73D2EFCD730
:100718003E2EFAD700F0000E456E290E3E6E960E5C
:100728003D6E7F0EE82EFED73D2EFCD73E2EFAD723
:1007380000F0000E456E8C888C9A000E8AEC04F04E
:10074800CBEC04F0B4EC04F0330E1E6E330E1F6EC7
:10075800030E206E410E216EA1EC04F008C00CF0CF
:1007680009C00DF00E6A0F6A000E09EC02F00CC009
:100778001AF00DC01BF00EC01CF00FC01DF03CECB1
:1007880000F01AC033F01BC034F01CC035F01DC097
:1007980036F0E3EC02F033C046F034C047F046C010
:1007A80045F0A1EF03F03AEF00F08C80060E016EE1
:1007B800300EE82EFED7012EFCD700F000F0000E18
:1007C800056E000E046EEFEF03F0050EE82EFED75F
:1007D80000F0044A052A4550016E026A0150045C83
:1007E8000550800A036E0250800A0358D8A0FFEF14
:1007F80003F001EF04F0E9EF03F08C9012009E90F3
:1008080043C001F044C002F051EC04F041504210E2
:10081800D8B411EF04F013EF04F020EF04F002D87D
:1008280020EF04F00500FA6E4150FD6E4250FE6E56
:10083800F850FF6EFA5012001200000E8D6E000E76
:100848008C6E000E896E000E8A6E000E8B6E070E7F
:10085800966E926893689468CE0E956E7E681F0EA9
:100868007F6E000E7C6EF18E12009E9C3F504010F1
:10087800D8B441EF04F043EF04F050EF04F002D88D
:1008880050EF04F00500FA6E3F50FD6E4050FE6ECA
:10089800F850FF6EFA5012001200CDA456EF04F083
:1008A80058EF04F060EF04F0CD900250CF6E01C015
:1008B800CEFFCD8064EF04F00250CF6E01C0CEFFB2
:1008C8001200730ECF6E600ECE6ECECF43F0CFCF38
:1008D80044F09E909D809A0E086E090E096EBAEC3F
:1008E80004F0110ECD6E1200000EC16E800EC06EA7
:1008F800000EC36E000EC46E010EC26E9D8C9C0E5F
:10090800086E090E096EC4EC04F01200096E09C0E5
:1009180008F008460846C2500818C30B0818C26EEB
:10092800C2801200C9EC04F021EC04F0BFEC04F022
:1009380065EC04F078EC04F01200C4500B6E0A6AFF
:10094800C3500A24086E000E0B20096E1200476A75
:10095800466A48904892000EF86E000166EF03F070
:10096800A00E00F000F0E82EFCD7120008C041F0FD
:1009780009C042F01200720ED36E400E9B6E120038
:1009880008C03FF009C040F01200D09E1200C28299
:0609980012001200120023
:020000040020DA
:08000000FFFFFFFFFFFFFFFF00
:020000040030CA
:0E000000FF081F1EFF0B81FF0FC00FE00F4017
:00000001FF
